:400000000080002011000000710600007106000008B5044B1A6803F53F5302331A6000F047FB00BFFA46004010B5054C237833B9044B13B10448AFF300800123237010BD47
:400040008081FF1F000000001C380000084B10B51BB108490848AFF300800848036803B910BD074B002BFBD0BDE81040184700BF000000008481FF1F1C380000C880FF1FEA
:4000800000000000000000002DE9F04700F060FE01F000F802460B464FA1D1E9000100F0BBFE02460B465049C1E9002300204F4900F0B2FE04460D46DFF838A1CAE9004533
:4000C000DAE9022300F0AAFE80468946CAE90289DAE904232046294600F09EFE06460F46CAE90667CAE904450022414B2046294601F046F83AA3D3E9002300F08FFE044670
:400100000D46002200234046494601F039F802460B462046294600F081FE04460D46002200233046394601F02BF802460B462046294600F073FECAE9080101F0BBFA80B2C5
:40014000CAF8280040F24B43984203DC40F24C42CAF82820274B9A6A40F26C739A4202DD1A46244B9A62234D288D00F073FC224800F04AFC214C1C4BD3E90023204920469F
:4001800001F068FF204600F03FFCD5E900231D49204601F05FFF204600F036FCD5E902231949204601F056FF204600F02DFCD5E906231649204601F04DFF204600F024FC03
:4001C000D5E908231249204601F044FF204600F01BFCBDE8F08700BF00000000E0FFEF4000000000007097401082FF1F00F08440000034C0A081FF1F20380000F081FF1F06
:400200002C3800003C380000543800006438000078380000000000002DE9F84300F0BCFA4D4B18804D4B1B88984203D81B1A4C4A138003E01B1A013B494A1380484B1888EC
:4002400000F028FF02460B460020464901F0C2F8454CC4E90C01D4E90C230020434900F0DBFD80468946424BC3E90089D4E90E2300F0D4FD06460F46C4E90E6700223D4B56
:40028000D4E9000101F00CFA28B12DA1D1E90001324BC3E902010022374B4046494600F06FFF2E4BD3E9022300F0B8FD04460D4625A3D3E900233046394600F061FF024614
:4002C0000B462046294600F0A9FD2C4CC4E9000100222B4BD4E9000101F0C4F918B100202749C4E900011AA3D3E900232349D1E9000101F0D5F928B115A1D1E900011F4BDB
:40030000C3E900011F4800F07FFB1F4C164BD3E90C231E49204601F09DFE204600F074FB164BD3E9000101F0C5F980B200F098FA00F026FA084B1A88084B1A80BDE8F883D7
:4003400000000000004CDD400000000000C0624000000000006AF8401882FF1FD080FF1F5A82FF1F00A09340A081FF1F000010402882FF1F0000694000407F402082FF1FBE
:4003800000408F4090380000F081FF1FA038000008B562B600F0B8FA00F040FA00F01AFB00F018FD00F0A8FB00F07CFC00F018FC00F0A6FC044800F089FC00F0CFFA0348FE
:4003C00000F0B2FAFEE700BF8900000019020000FEE700BFF0B40022174611E050F82760F3B226F0FF0608E001EB420511F812406D78A5550132013BDBB2002BF4D1013759
:400400001F2FEBD9F0BC70470B4B1B78DBB203F007010A4A11701B09013213702022084B1A70102307490B7030310A70064A13704422064B1A707047CF0100496E58004045
:400440004D510040905A0040C45A00407658004008B50A46002101F084F908BD38B50024284B1C80582202331A70172202331A801823254A1370192502321580023213705B
:400480000222224B1A7008224FF040231A70032103F5007319701E4B1B78DBB21D490B701D4B1A8041F25122023B1A800CE01B4B1B7803F0010343EA440404F003044FF43B
:4004C000F07000F095FC013D0DB1032CEFD115B90320FFF77DFF124B4FF480721A8007221A7000220F490A704820023108701A700222033B1A700C4A137843F007031370D0
:4005000038BD00BF80400040864000400043004008010049A146004022420040254200400440004006400040A243004008B501F00DF908BD38B572B6364A137843F00403B8
:40054000137000240CE0344D630019194A0011462A44084691882858FFF77AFF0134E4B2072CF0D92D494FF09040FFF733FF03222B4B1A802B4A03F52E4390331A602A4A35
:40058000137843F0020313701032137843F002031370264C237843F040032370A2F58632513A137843F010031370082220492148FFF7BCFF082220492048FFF7B7FF0822AB
:4005C0001F492048FFF7B2FF08221F491F48FFF7ADFF08221E491F48FFF7A8FF0A221E491E48FFF7A3FF1E4A137843F0080313701C4D61232B70FFF731FF81232B700122FF
:40060000194B1A70FFF700FF0E2221461748FFF78DFF38BDE8460040AC38000080000048485800400404044403500140A0430040B009004802510040B80900481251004029
:40064000C009004832510040C809004842510040D009004852510040D809004860510040224300400048004004000840B043004008B501F03FF803680C2B00D1FEE7FEE7CE
:4006800008B5094B1A681044084BC31AB3F5805F02DC054B186005E001F02CF80C2303604FF0FF32104608BDE080FF1F6082FF1F08B5104E104D16E029686B68AC68002259
:4006C00004E051F8040B43F8040B0432A242F8D1E868002203E0002143F8041B04328242F9D11035013E002EE6D101F009F8FFF74FFEFEE701000000603A000008B5104AC8
:40070000104B1A60104A136843F40073136000230AE0032B03D80D4A52F8231000E00C490C4A42F8231001332F2BF2D90A4B1A780A4B1A70074A0A4B1A60FFF7FBFE08BD1D
:400740000004FA050CED00E014ED00E000000000710600000080FF1FBC760040C080FF1F08ED00E0024A137843F080031370704775650040014B1870704700BF85650040AD
:40078000014B1878704700BF65650040014B1880704700BF486A0040014B188880B27047886A0040014B1880704700BF086A004000F00300044B1A7802F0FC021A701A789E
:4007C00010431870704700BF7565004008B501E0FFF7E2FFFFF7D4FF10F0080FF8D108BD08B54FF6FF70FFF7D1FF4FF6FF70FFF7D9FF00F005FB084A137843F0100313705C
:4008000000F002FB0020FFF7D3FFFFF7DFFF0220FFF7B0FF08BD00BF9565004008B5054B1B7823B9FFF7DCFF0122024B1A70FFF799FF08BDE081FF1F024A137843F08003E4
:400840001370704772640040014B1880704700BF08680040014B1880704700BF88680040014B1880704700BF48680040014B1870704700BF82640040014B1878704700BF88
:4008800062640040014B188880B27047A868004008B501E0FFF7F6FFFFF7EEFF10F0100FF8D108BD08B5164A137803F0C00343F0090313702232137843F001031370013208
:4008C000137843F00103137046F29C30FFF7BCFF46F29C30FFF7BEFF40F6B830FFF7C0FF0020FFF7C3FF00F08BFA064A137843F01003137000F088FAFFF7CAFF08BD00BFCE
:40090000726400409264004008B5054B1B7823B9FFF7C8FF0122024B1A70FFF78DFF08BDE181FF1F704700BF014B1B681864704708ED00E04001C0B2014B1870704700BF27
:4009400000E400E00122014B1A60704700E100E00122014B1A60704780E100E008B5FFF7F7FF0448FFF7E0FF0720FFF7E3FFFFF7E9FF08BD250900007222074B1A70202225
:40098000013B1A700622613B1A70472210331A70002254331A7070478C64004010B500F02FFA04460A4A137843F020031370013A137843F0100313700332137843F010035E
:4009C000137000F0A7F8204600F01EFA10BD00BF9C64004008B5054B1B7823B9FFF7CCFF0122024B1A70FFF7D9FF08BDE281FF1F034B1B7813F0040FFAD1024B1870704712
:400A00006E6400404E64004038B5074B1B782BB938BDFFF7EDFF0134A4B201E005460024285D0028F5D138BDE281FF1F024A137843F080031370704773640040014B18809F
:400A4000704700BF04680040014B1880704700BF84680040014B1880704700BF44680040014B1870704700BF83640040014B1878704700BF63640040014B188880B27047E9
:400A8000A468004008B501E0FFF7F6FFFFF7EEFF10F0100FF8D108BD10B5154A137803F0C00343F0090313701F32137843F001031370104C237843F00103237044F6206099
:400AC000FFF7BCFF44F62060FFF7BEFF40F2DC50FFF7C0FF0020FFF7C3FF00F091F9237843F01003237000F08FF9FFF7CBFF10BD736400409364004008B5054B1B7823B930
:400B0000FFF7CAFF0122024B1A70FFF78FFF08BDE481FF1F054A137843F0040313701032137843F004031370704700BFA2430040054A137843F0010313701032137843F0E0
:400B400001031370704700BFA74300400F490B7803F0FC0200F0030313430B7001280AD10B4B1B78DBB20B4A13700B4B1B78DBB2013213707047094B1B78DBB2054A137040
:400B8000074B1B78DBB201321370704740580040100100493046004014010049AD010049B501004908B50120FFF7D0FF0B4B1A7842F020021A701A7802F0FB021A701A7814
:400BC00042F008021A7003F287231A7802F0E7021A701A7842F010021A7008BD4058004008B5054B1B7823B9FFF7DCFF0122024B1A70FFF79DFF08BDE581FF1F054A1378A0
:400C000043F0040313701032137843F004031370704700BFA8430040054B1A7802F0FD021A701A7800F0020010431870704700BF28580040014B1870704700BF825B004073
:400C4000064B1B78C3F3810303F19243063393F82831DBB2024A1370704700BF285800400A46004008B5064B1A7802F0F3021A701A7800F00C0010431870FFF7E1FF08BD39
:400C80002858004008B50023054A1370013213700420FFF7E7FF0220FFF7BEFF08BD00BF2858004008B5074B1B7823B9FFF7EAFF0122044B1A70FFF7A1FF4420FFF7BAFFF1
:400CC00008BD00BFE681FF1F704700BF014B1B685864704708ED00E04001C0B2014B1870704700BF01E400E00222014B1A60704700E100E00222014B1A60704780E100E058
:400D000008B5FFF7F7FF0448FFF7E0FF0720FFF7E3FFFFF7E9FF08BDC90C0000024A137843F080031370704774650040014B1870704700BF87640040014B1878704700BFCB
:400D400067640040014B1880704700BF4C680040014B188880B270478C680040014B1880704700BF0C68004000F00300044B1A7802F0FC021A701A7810431870704700BFD2
:400D80007465004008B501E0FFF7E2FFFFF7D4FF10F0080FF8D108BD08B54FF6FF70FFF7D1FF4FF6FF70FFF7D9FF00F029F8084A137843F01003137000F026F80020FFF7A3
:400DC000D3FFFFF7DFFF0220FFF7B0FF08BD00BF9764004008B5054B1B7823B9FFF7DCFF0122024B1A70FFF799FF08BDE781FF1F0230800803D000BF01380046FCD1704758
:400E0000EFF3108072B6704780F31088704700BF81F0004102E000BF83F0004330B54FEA41044FEA430594EA050F08BF90EA020F1FBF54EA000C55EA020C7FEA645C7FEA08
:400E4000655C00F0E2804FEA5454D4EB5555B8BF6D420CDD2C4480EA020281EA030382EA000083EA010180EA020281EA0303362D88BF30BD11F0004F4FEA01314FF4801CCC
:400E80004CEA113102D0404261EB410113F0004F4FEA03334CEA133302D0524263EB430394EA050F00F0A780A4F10104D5F1200E0DDB02FA0EFC22FA05F2801841F100019E
:400EC00003FA0EF2801843FA05F359410EE0A5F120050EF1200E012A03FA0EFC28BF4CF0020C43FA05F3C01851EBE37101F0004507D54FF0000EDCF1000C7EEB00006EEBBE
:400F00000101B1F5801F1BD3B1F5001F0CD349085FEA30004FEA3C0C04F101044FEA445212F5800F80F09A80BCF1004F08BF5FEA500C50F1000041EB045141EA050130BD5C
:400F40005FEA4C0C404141EB010111F4801FA4F10104E9D191F0000F04BF01460020B1FA81F308BF2033A3F10B03B3F120020CDA0C3208DD02F1140CC2F10C0201FA0CF0FA
:400F800021FA02F10CE002F11402D8BFC2F1200C01FA02F120FA0CFCDCBF41EA0C019040E41AA2BF01EB0451294330BD6FEA04041F3C1CDA0C340EDC04F11404C4F120024C
:400FC00020FA04F001FA02F340EA030021FA04F345EA030130BDC4F10C04C4F1200220FA02F001FA04F340EA0300294630BD21FA04F0294630BD94F0000F83F4801306BFA4
:4010000081F480110134013D4EE77FEA645C18BF7FEA655C29D094EA050F08BF90EA020F05D054EA000C04BF1946104630BD91EA030F1EBF0021002030BD5FEA545C05D110
:401040004000494128BF41F0004130BD14F580043CBF01F5801130BD01F0004545F0FE4141F470014FF0000030BD7FEA645C1ABF194610467FEA655C1CBF0B46024650EA59
:40108000013406BF52EA033591EA030F41F4002130BD00BF90F0000F04BF0021704730B54FF4806404F132044FF000054FF0000150E700BF90F0000F04BF0021704730B549
:4010C0004FF4806404F1320410F0004548BF40424FF000013EE700BF42004FEAE2014FEA31014FEA02701FBF12F07F4393F07F4F81F06051704792F0000F14BF93F07F4FB7
:40110000704730B54FF4607401F0004521F0004120E700BF50EA010208BF704730B54FF000050AE050EA010208BF704730B511F0004502D5404261EB41014FF4806404F1F7
:4011400032045FEA915C3FF4DCAE4FF003025FEADC0C18BF03325FEADC0C18BF033202EBDC02C2F1200300FA03FC20FA02F001FA03FE40EA0E0021FA02F11444C1E600BFE2
:4011800070B54FF0FF0C4CF4E06C1CEA11541DBF1CEA135594EA0C0F95EA0C0F00F0DEF82C4481EA030621EA4C5123EA4C5350EA013518BF52EA033541F4801143F4801303
:4011C00038D0A0FB02CE4FF00005E1FB02E506F00042E0FB03E54FF00006E1FB03569CF0000F18BF4EF0010EA4F1FF04B6F5007F64F5407404D25FEA4E0E6D4146EB06060C
:4012000042EAC62141EA55514FEAC52040EA5E504FEACE2EB4F1FD0C88BFBCF5E06F1ED8BEF1004F08BF5FEA500E50F1000041EB045170BD06F0004646EA010140EA0200BF
:4012400081EA0301B4EB5C04C2BFD4EB0C0541EA045170BD41F480114FF0000E013C00F3AB8014F1360FDEBF002001F0004170BDC4F10004203C35DA0C341BDC04F11404C6
:40128000C4F1200500FA05F320FA04F001FA05F240EA020001F0004221F0004110EBD37021FA04F642EB06015EEA430E08BF20EAD37070BDC4F10C04C4F1200500FA04F3C0
:4012C00020FA05F001FA04F240EA020001F0004110EBD37041F100015EEA430E08BF20EAD37070BDC4F1200500FA05F24EEA020E20FA04F301FA05F243EA020321FA04F0EE
:4013000001F0004121FA04F220EA020000EBD3705EEA430E08BF20EAD37070BD94F0000F0FD101F00046400041EB010111F4801F08BF013CF7D041EA060195F0000F18BF32
:40134000704703F00046520043EB030313F4801F08BF013DF7D043EA0603704794EA0C0F0CEA135518BF95EA0C0F0CD050EA410618BF52EA4306D1D181EA030101F0004134
:401380004FF0000070BD50EA410606BF1046194652EA430619D094EA0C0F02D150EA013613D195EA0C0F05D152EA03361CBF104619460AD181EA030101F0004141F0FE4136
:4013C00041F470014FF0000070BD41F0FE4141F4780170BD70B54FF0FF0C4CF4E06C1CEA11541DBF1CEA135594EA0C0F95EA0C0F00F0A7F8A4EB050481EA030E52EA033596
:401400004FEA013100F088804FEA03334FF0805545EA131343EA12634FEA022245EA111545EA10654FEA00260EF000419D4208BF964244F1FD0404F5407402D25B084FEA0A
:401440003202B61A65EB03055B084FEA32024FF480104FF4002CB6EB020E75EB030E22BFB61A754640EA0C005B084FEA3202B6EB020E75EB030E22BFB61A754640EA5C0056
:401480005B084FEA3202B6EB020E75EB030E22BFB61A754640EA9C005B084FEA3202B6EB020E75EB030E22BFB61A754640EADC0055EA060E18D04FEA051545EA16754FEA23
:4014C00006164FEAC30343EA52734FEAC2025FEA1C1CC0D111F4801F0BD141EA00014FF000004FF0004CB6E711F4801F04BF01430020B4F1FD0C88BFBCF5E06F3FF6AFAE6B
:40150000B5EB030C04BFB6EB020C5FEA500C50F1000041EB045170BD0EF0004E4EEA113114EB5C04C2BFD4EB0C0541EA045170BD41F480114FF0000E013C90E645EA060ECA
:401540008DE60CEA135594EA0C0F08BF95EA0C0F3FF43BAF94EA0C0F0AD150EA01347FF434AF95EA0C0F7FF425AF104619462CE795EA0C0F06D152EA03353FF4FDAE104688
:40158000194622E750EA410618BF52EA43067FF4C5AE50EA41047FF40DAF52EA43057FF4EBAE12E74FF0FF3C06E000BF4FF0010C02E000BF4FF0010C4DF804CD4FEA410CD5
:4015C0007FEA6C5C4FEA430C18BF7FEA6C5C1BD001B050EA410C0CBF52EA430C91EA030F02BF90EA020F0020704710F1000F91EA030F58BF994208BF90422CBFD8176FEAA6
:40160000E37040F0010070474FEA410C7FEA6C5C02D150EA013C07D14FEA430C7FEA6C5CD6D152EA033CD3D05DF8040B704700BF8446104662468C461946634600E000BFFD
:4016400001B5FFF7B7FF002848BF10F1000F01BD4DF808EDFFF7F4FF0CBF012000205DF808FB00BF4DF808EDFFF7EAFF34BF012000205DF808FB00BF4DF808EDFFF7E0FF52
:4016800094BF012000205DF808FB00BF4DF808EDFFF7CEFF94BF012000205DF808FB00BF4DF808EDFFF7C4FF34BF012000205DF808FB00BF4A0011D212F5001211D20DD58E
:4016C0006FF47873B3EB62520ED44FEAC12343F0004343EA505323FA02F070474FF00000704750EA013002D14FF0FF3070474FF000007047014B1868704700BF4481FF1FCB
:401700000E4B70B51E460E4C0025E41AA410A54204D056F8253098470135F8E702F08EF9084B094C1E46E41AA4100025A54204D056F8253098470135F8E770BD483A0000E7
:40174000483A0000483A0000503A000010B5431E0A44914204D011F8014B03F8014FF8E710BD03460244934202D003F8011BFAE770472DE9F04788B0149F002B1E4612991D
:40178000B8BF03F1004327F02007B6BF1E4600232D23462F1446109DDDF84CA00B7003D0452F03D1013501E0032300E0022307AA049206AA03928DE828042246334600F0DE
:4017C00003FD472F804602D1119BDB0728D5462F08EB050911D198F80030302B0AD10022002320463146FFF733FF18B9C5F10105CAF80050DAF8003099440022002320468E
:401800003146FFF725FF08B9302202E0CDF81C9006E0079B994503D9591C07911A70F8E74046079B159AC8EB0303136008B0BDE8F087034673B50029B8BF494203F8022B5E
:40184000B4BF2D222B22092942701ADD0DF1070216460A2591FBF5F405FB1411092C01F1300102F8011D2146F4DC3031541E02F8011CB4421A460AD214F8012B03F8012B30
:40188000F7E71A463024214402F8024B5970101A02B070BD2DE9F04F91B00C46DDF8688016461F46054601F027FA03681846099300F0F4FB00230E93D8F800300A90073379
:4018C00023F0070303F1080294F81890D4F800B0C8F80020D3E90023C4E91223D4F84CA0D4F848802AF000430B934FF0FF32A74B40460B9901F054FFA0B94FF0FF32A34BAE
:4019000040460B99FFF7B8FE60B90022002340465146FFF7A7FE10B12D2384F843309C4B9C4A0AE0424653464046514601F038FF002800F09281984B984AB9F1470F8CBF63
:4019400090469846032323612BF0040323604FF0000A3DE0B9F1670F00F08A81B9F1470F00F0868123600193636800210DF13302059002920093424653460691CDF81090DD
:40198000CDF80CE02846FFF7F4FE09F0DF03472B804600F08481B9F1650F0D9900F28D8101394A4604F150000D91FFF742FF0E9A82468318012A236100F37C812268D10764
:4019C00000F178819DF8333013B12D2384F84330009733460FAA2146284600F09FF9013002D14FF0FF3096E123685A0501D4236965E0B9F1650F40F2D580D4E912010022CC
:401A00000023FFF725FE78B30123654A31462846B8470130E5D00E9B0D9A9A420BDB2368D80708D423689B0740F111814FF0000804F1190906E10A9B099A31462846B847E9
:401A40000130CED04FF0000804F11A090E9B013B9845E7DA01234A4631462846B8470130BFD008F10108F1E70D9B002B29DC01234B4A31462846B8470130B2D00D9B23B9D7
:401A80000E9B13B92368D907CCD50A9B099A31462846B8470130A4D04FF0000904F11A0A0D9B5B42994509DA0123524631462846B847013095D009F10109F1E70E9B42462A
:401AC000A7E00E9AA36D9A42A8BF1A46002A914606DC4FF0000A29EAE97904F11A0B11E01346314642462846B8470130F1D178E701235A4631462846B84701303FF471AF15
:401B00000AF1010AA36DC9EB03029245F0DB08EB03090D9A0E9B9A420FDB2368DA070CD40E9B0D9A9844C9EB08089B1A9845A8BF9846B8F1000F08DC0FE00A9B099A3146C2
:401B40002846B8470130EBD14BE743464A4631462846B84701303FF444AF4FF0000928EAE87804F11A0A09E00123524631462846B84701303FF435AF09F101090D9A0E9B8D
:401B80009B1AC8EB03039945EEDB4BE7FFFFEF7FDE380000E2380000E6380000EA380000EE3800000E9A012A01DCDB0738D50123424631462846B84701303FF412AF0A9BE3
:401BC000099A31462846B84701303FF40AAFD4E9120100220023FFF73BFD20B14FF0000804F11A090EE00E9B08F10102013B19E001234A4631462846B84701303FF4F1AE6B
:401C000008F101080E9B013B9845F1DB534604F1500231462846B84701307FF403AFE0E64246012331462846B8470130EED1D8E601234A4631462846B84701303FF4D1AE7B
:401C400008F10108E3680F9A9B1A9845F0DBE0680F9B9842B8BF18465DE062680EA8531C0DF1340E4BF480637FF474AE062201E012B90122626075E6002106910DF133014F
:401C80008DE80C00236005904246CDF81090CDF80CE0029153462846FFF76BFD80460D9BD81C02DB626893421DDDA9F102095FFA89F970E60133236184E6B9F1660F14D121
:401CC0000029636807DD216113B92268D2071DD501330B4419E013B92268D00701D5023313E0012311E04FF067090D9B0E9A934205DB22682361D10708D5013305E0002BF2
:401D0000D4BFC3F102030123134423610D9B4FF0000AA36556E611B0BDE8F08F2DE9F04791461F460A698B6806469342B8BF1346C9F8003091F843200C46DDF8208012B1F7
:401D40000133C9F800302368990642BFD9F800300233C9F80030256815F0060510D104F1190A07E00123524639463046C04701301AD00135E368D9F800209B1A9D42F1DBCA
:401D800094F843302268003318BF012392060FD5E118302081F843005A1C94F845102244023382F8431003E04FF0FF30BDE8F08704F1430239463046C0470130F4D022680A
:401DC000D9F80050E36802F00602042A08BF5D1B2269A3680CBF25EAE57500259342C4BF9B1AED184FF000091A344D4509D00123224639463046C0470130D5D009F10109AC
:401E0000F3E70020BDE8F0872DE9F04317460A7E85B06E2A984606460C460C9B01F1430E00F0AE8011D8632A22D009D8002A00F0BB80582A40F0CA8081F84520834955E094
:401E4000642A1ED0692A1CD0C0E0732A00F0B08009D86F2A2ED0702A40F0B8800A6842F020020A603EE0752A24D0782A3AD0ADE01A6801F14205111D1960136884F84230AB
:401E8000A8E021681A6811F0800F02D0111D196008E011F0400F02F10401196002D0B2F9003000E01368002B3CDA2D225B4284F8432037E021681A6811F0800F02D0111D17
:401EC000196007E011F0400F02F10401196001D0138800E01368227E5C496F2A14BF0A2208221BE078225A4984F845202268186812F0800F00F104051D6003D1550601D5C3
:401F0000038800E00368D00744BF42F0200222601BB9226822F0200222601022002084F8430001E049490A226568002DA56008DB206820F0040020602BB9002D7DD175463F
:401F40000CE0002B79D07546B3FBF2F002FB1033CB5C05F8013D03460028F5D1082A0BD12368DA0708D5236962689A42DEBF302305F8013C05F1FF35C5EB0E0323612EE0AD
:401F800008681A6810F0800F496903D0101D1860136808E010F0400F02F104001860136801D0198000E0196000232361754616E01A68111D1960156800216268284600F0D0
:401FC000A7FE08B1401B6060636804E004F1420584F8422001232361002384F84330CDF800803B4603AA21463046FFF797FE013002D14FF0FF3026E023692A4639463046A1
:40200000C0470130F5D023689B0710D5002504F1190907E001234A4639463046C0470130E7D00135E368039A9B1A9D42F2DBE068039B9842B8BF184605E00B7804F142051E
:4020400084F842308AE705B0BDE8F083F0380000013900000EB400B54FF402719CB0ADF814106FF00041049107914FF6FF711DAB02900690084853F8042BADF81610006821
:4020800002A9019301F03AFA029B00221A701CB05DF804EB03B070474481FF1F034613F8012B002AFBD1181A013870472DE9F74F03690C6980469C427FDC013C01F11407F8
:4020C0004FEA840E00F1140606EB0E0357F82450019356F824300135B3FBF5F507EB0E09C5B34FF0000A3846B446D34650F8043B9AB205FB02A21B0C4FEA124A05FB03A30D
:4021000092B2C2EB0B0BBCF800204FEA134A5A441FFA83FBDCF800308145CBEB134303EB224392B242EA03424FEA234B4CF8042BDCD256F80E306BB9019B043B9E421A4688
:4021400002D3C8F8104005E01268043B002AF8D1013CF3E7404600F0F6FF00282BDB304601354FF0000E57F8042B036891B2C1EB0E0E120C99B27144C2EB134303EB2143D9
:4021800089B24FEA234EB94541EA034340F8043BE9D256F8242006EB840362B9043B9E421A4602D3C8F8104005E01268043B002AF8D1013CF3E7284600E0002003B0BDE8A2
:4021C000F08F0000000000002DE9F04F456A95B08246219CCDE9022345B9102000F090FDCAF82400456085600560C560DAF82430196859B15A68012393404A608B6050467D
:4022000000F0C9FDDAF8243000221A60039BA04A002BBDBF01232360039B0023BCBF23F000430393DDF80C80A8BF236028F000431B0D1B0593421DD142F20F73209A136094
:40224000029B43B9934A944BC8F31300002814BF1846104600E09048229B002B00F04685C37813B100F1080300E0C31C229A136000F03CBDDDE90245002200232046294638
:40228000FFF7E6F9074658B1209A01231360229B002B00F01E8581481860013800F026BD12AB019313AB009322462B46504600F0C5FFC8F30A56049056B1C5F3130343F05E
:4022C0007F51204641F44011A6F2FF3611971DE0139B129E1E4406F23243202B0ADD029A06F21240C3F1400322FA00F008FA03F3184304E0C3F12000029B03FA00F0FEF7DE
:40230000C9FE0123A1F1F871013E11930022644BFEF782FD58A3D3E90023FEF731FF58A3D3E90023FEF77AFD044630460D46FEF7C1FE55A3D3E90023FEF722FF02460B46FD
:4023400020462946FEF76AFD04460D4601F03EFA00228346002320462946FFF783F958B15846FEF7A7FE02460B4620462946FFF76FF908B90BF1FF3BBBF1160F0DD8DDE991
:402380000223484901EBCB01D1E90001FFF788F930B10BF1FF3B002300E00123109300E01090129B9E1B731E079343BFC3F10008002307934FF00008BBF1000F06DB079B8B
:4023C000CDF82CB05B440793002705E00023CBEB0808CBF100070B931E9B092B28D8052BC4BF043B1E931E9BC8BF0025A3F10203D8BF0125032B20D8DFE803F0060E020468
:40240000012302E0012308E000230A931F9B002B1DDD9946059321E000230A931F9B0BEB030909F10103012B0593B8BF012315E0012500231E930A9501E001230A934FF02B
:40244000FF390022CDF8149012231F9206E04FF001094B46CDF81490CDF87C90DAF8244000226260042101F114029A421CD86268490001326260F6E761436F63A787D23F08
:40248000B3C8608B288AC63FFB799F501344D33F0000F07F123900001B390000EF3800000000F83F283900006168504600F03EFCDAF8243020601B680693059B0E2B00F250
:4024C0005B81002D00F05881DDE90234BBF1000FCDE90E3430DD9F4A0BF00F034FEA2B1502EBC303E80618CBCDE908340CD5DDE90E01994B05F00F05D3E90823FEF76AFF81
:402500000324CDE9020100E00224934E6DB1E90708D5DDE90801D6E90023FEF731FECDE9080101346D100836F0E7DDE90823DDE90201FEF74FFF20E0CBF1000505B3DDE952
:402540000E01844B05F00F0203EBC203D3E90023FEF716FECDE902017F4E2D110023022455B1EA0705D5D6E90023FEF709FE013401236D100836F3E71BB1CDE9020100E0CD
:402580000224109BE3B1DDE902560022734B28463146FFF767F898B1059B8BB1B9F1000F40F3E6800BF1FF330893314600226C4B2846FEF7E5FD0134CDE902014E4602E045
:4025C000059ECDF820B02046FEF774FDDDE90223FEF7D6FD634B0022FEF720FCA1F1507304460C931D46D6B9DDE9020100225E4BFEF712FC22460C9BCDE90201FFF750F876
:40260000002840F03F820C99224601F10043DDE90201FFF727F8002840F02B82A8E00A9A4C4B711E002A49D003EBC103D3E9002300204E49FEF7CEFE22462B46FEF7ECFB09
:40264000CDE90C01069CDDE9020101F0BFF80546FEF730FD02460B46DDE90201FEF7DCFBDDE90C23303504F8015BCDE90201FEF7F9FF002840F01D83DDE90223002037490E
:40268000FEF7CAFBDDE90C23FEF7ECFF002840F0D180069BE31AB3426ADADDE90C0100222F4BFEF76DFD0022CDE90C01DDE902012B4BFEF765FDCDE90201C4E703EBC101AE
:4026C0002246D1E900012B46FEF75AFD069BCDE90C011D469C19DDE9020101F077F80646FEF7E8FC02460B46DDE90201FEF794FB303605F8016BAC42CDE902014FF0000293
:4027000022D11A4BDDE90C01FEF788FB02460B46DDE90201FEF7C4FF002840F08B80DDE90C2300201149FEF777FB02460B46DDE90201FEF797FFD8B114F8013C621E302B09
:4027400040F0B7821446F7E7054BFEF719FDCDE90201C0E728390000003A00000000F03F0000244000001C40000014400000E03FDDE90E34CDE90234139B002B7CDBBBF130
:402780000E0F79DCAB4B03EBCB03D3E900671F9B002B14DA059B002B11DC40F06C810022A54B30463946FEF7EBFCDDE90223FEF76DFF059D2E46002840F05F8165E1069CC5
:4027C000DDE9028932463B4640464946FEF702FE00F0FCFF0546FEF76DFC32463B46FEF7CFFC0B46024649464046FEF715FB05F1300E069B04F801EBC3EB040E059B7345B0
:402800002DD102460B46FEF709FB8046894602460B4630463946FEF725FF78B942464B4630463946FEF714FF002800F04482EB0704D440E2DDF820B000E01C4614F8012C9B
:40284000631E392A07D1069A9A42F6D1069930220BF1010B0A701A7801321A702BE20022764BFEF78DFC0022002380468946FEF7EFFE0028A6D01EE20A9A002A2BD01E9A4E
:40288000012A0ADC119A12B103F2334302E0129BC3F136033D46444613E0059B5D1EAF42BFBF0B9BEA1B9B180B93059BB6BF2F467D1B0025002BA7BF4446059BC3EB080470
:4028C0000023079A01211A4450469844079200F001FB064602E03D4644460A9E5CB1079B002B08DDA342A8BF2346079AC3EB0808E41AD31A0793002F1DDD0A9BABB18DB1FA
:4029000031462A46504600F07FFB049A01460646504600F0E8FA04990890504600F03BFA089B04937A1B06D000E03A460499504600F06AFB04900121504600F0CBFA0B9BF3
:4029400005465BB31A460146504600F05DFB1E9B0546012B18DC029B83B9039BC3F3130373B9039B23F000473F0D3F054FB1079B08F1010801330793012702E0002700E0DB
:40298000029F0B9B73B100E000272B6905EB8303186900F052FAC0F1200004E01E9B012BD9DD0B9F0120079B184410F01F0008D0C0F12003042B02DDC0F11C0002E006D067
:4029C00018461C30079B8044034404440793B8F1000F05DD42460499504600F063FB0490079B002B05DD29461A46504600F05AFB0546109B23B32946049800F0A4FB002880
:402A00001EDA00230A220499504600F0DBF90A9B0BF1FF3B0490002B00F05F81314600230A22504600F0CEF9B9F1000F06463FDC3BE000BF283900000000144000002440C8
:402A4000059B002B2BDC1E9B022B28DDDDF81490B9F1000F11D129464B460522504600F0B1F901460546049800F06DFB00280CDC03E0354600E000252E461F9B069C6FEA0C
:402A8000030B09E03546DDF820B0069B069A5C1C312313700BF1010B05960026F7E00A9BDDF8149023B9069CB2E01E9B022BCFDC002C05DD31462246504600F0F3FA064664
:402AC0009FB17168504600F031F90446326906F10C01023292000C30FEF738FE01222146504600F0DFFA059000E00596029B069F03F00103079329460498FFF7D7FA3146D2
:402B0000044600F13008049800F01DFB059A02902946504600F033FBC36802463BB901460A90049800F00FFB0A9A034600E00123114650460A9300F02EF90A9B53B91E9A51
:402B400042B9079A32B9B8F1390F2AD0029B002B1CDC1DE0029A002A04DB1BD11E9ACAB9079ABAB9002B13DD01220499504600F099FA2946049000F0E6FA002803DC07D1A0
:402B800018F0010F04D0B8F1390F0AD004F131087C1C0CE0002B07F101040BDDB8F1390F03D139233B70013756E008F1010887F800806CE0069B2746E31A4B4504F8018CF1
:402BC0003BD000230A220499504600F0FBF8059B04909E424FF00A024FF000033146504604D100F0EFF80646059084E700F0EAF8002306460A220599504600F0E3F80590BE
:402C000079E700230A220499504600F0DBF8049029460498FFF74AFA069B00F1300804F8018BE31A4B45ECDB069B0596B9F1010FACBF4B4401331F4600260122049950466B
:402C400000F030FA2946049000F07DFA002803DC15D118F0010F12D03C4614F8013C621E392B09D1069B934204D10BF1010B3123069A02E01446F0E70133137007E03C46E6
:402C800014F8013C621E302B01D11446F8E72946504600F080F8059B6BB12EB19E4203D03146504600F077F80599504600F073F801E0DDF820B00499504600F06CF80023FF
:402CC000209A23700BF101031360229B1BB11C6001E008480AE0069808E0B9F1000F3FF7E2AE1E9B022B7FF7DEAEB1E615B0BDE8F08F00BFEE380000004870474881FF1FBC
:402D0000024B0146186800F041BB00BF4481FF1F10B5C9B202449042034605D01C7801308C42F8D1184610BD002010BD70B5456A04460E463DB91020FFF7E2FF6062456031
:402D400085600560C560656AEB6843B1636ADB6853F8260078B1026843F8262017E021220421204600F0B8FA636AE860DB68002BECD1002070BD012101FA06F56A1D920014
:402D8000204600F0A9FA0028F3D04660856000230361C36070BD70B5446A06460D463CB91020FFF7ADFF7062446084600460C4603DB1736A6A68DB6853F82210296043F891
:402DC000225070BD2DE9F04106460C460D691F4601F1140E0023DEF80000013381B202FB0171000C0F0C02FB007089B201EB00419D424FEA10474EF8041BECDCD7B1A36866
:402E00009D4212DB616830460131FFF78FFF8046226904F10C01023292000C30FEF796FC21463046FFF7B7FF444604EB850301355F6125612046BDE8F081030C1B0413B979
:402E40000004102300E0002310F07F4F04BF0002083310F0704F04BF0001043310F0404F04BF80000233002803DB420003D5581C70471846704720207047036813F00702BB
:402E80000BD0D90722D49A074BBF5B089B08036003604CBF01200220704799B209B91B0C102213F0FF0F04BF1B0A0832190704BF1B090432990704BF9B080232D90702D41F
:402EC0005B0805D00132036010467047002070472020704710B50C460121FFF727FF01224461026110BD2DE9F74F14460A69236988469A42BEBF0B46A0461C46D8F8107017
:402F0000D4F81090D8F80830D8F8041007EB09069E42C8BF0131FFF709FF00F114052B4605EB860C0022634502D243F8042BFAE704F1140208F1140102EB890301EB8707AF
:402F40000093009B0192934257D9B2F800B0BBF1000F23D08946AE464FF0000859F8044BBEF800A0A3B20BFB03A34FEA144ADEF8004043444FEA14480BFB0A84F24604EBFE
:402F800013449BB243EA04434F454FEA14484AF8043B01D9D646E1E7CEF80480019B0432B3F802A0BAF1000F21D02C4689462B684FF00008B9F800E0B4F802B09BB20AFB21
:402FC0000EBEA346F04443EA08434BF8043B59F8043BB4F804E01B0C0AFB03E34F4503EB18434FEA134801D95C46E3E763600435A7E75CF8043D13B9013E002EF9DC066171
:4030000003B0BDE8F08F00002DE9F843154612F0030206460F4607D0214C013A002354F82220FFF7CFFE0746AD1036D0746A3CB91020FFF765FE7062446084600460C46024
:40304000D6F82480D8F808404CB940F271213046FFF740FF04460023C8F8080003604FF00008EB070AD5394622463046FFF73BFF814639463046FFF78EFE4F466D100CD0E9
:40308000206808B10446ECE7224621463046FFF72AFF2060C0F80080F4E73846BDE8F883F03900002DE9F0470C460746914626694FEA621A56444968A368751CAB4202DA3D
:4030C00001315B00FAE73846FFF730FE002380461A4600F11401534503DA41F823200133F9E72AEAEA73206901EB830319F01F0904F1140101EB800E14D0C9F1200C00225F
:4031000008689A4600FA09F0024343F8042B51F8042B8E4522FA0CF2F2D8CAF8042042B1B51C06E0043B51F8042B8E4543F8042FF9D8013D3846C8F810502146FFF72BFEB3
:403140004046BDE8F08703690A6910B59B1A11D192001430143183180A4453F8044D52F8041D8C4202D007D3012010BD9842F4D3002010BD184610BD4FF0FF3010BD2DE9F5
:40318000F8430C460746114620461546FFF7DBFF061E08D131463846FFF7C8FD012303614661BDE8F883BCBF23462C4638466168BABF1D4601260026FFF7B8FD2B69C66026
:4031C000266905F1140904F1140101EB860709EB830800F114054FF0000C51F8042B59F8044B93B29C44A3B2240CC3EB0C03C4EB124202EB23429BB24FEA224CC84543EAD4
:4032000002428E4645F8042BE7D8BE450ED25EF8041B8AB26244131403EB114392B242EA03424FEA234C45F8042BEEE755F8043D0BB9013EFAE70661BDE8F8832DE9F341C7
:403240001C4601219046089E099DFFF76FFDC4F31302C4F30A5407460CB142F480120192B8F1000F19D002A840F8088DFFF705FE009B48B1019AC0F1200102FA01F10B43B2
:40328000C2407B61019200E07B61019B002B14BF02210121BB61396107E001A8FFF7EDFD019B01217B613961203034B1A4F2334404443460C0F1350009E0A0F2324007EBC5
:4032C000810330601869FFF7B8FDC0EB41102860384602B0BDE8F08138B502FB01F4214600F054F8054618B122460021FEF739FA284638BD38B50546002944D051F8043C1C
:403300000C1F002BB8BFE41800F017FA1E4A1368114613B96360146030E0A3420DD92268A018834201BF18685B681218226063600C6023E0A24203D813465A68002AF9D1F5
:4033400018681918A1420BD12168014458188242196013D110685268014419605A600DE002D90C232B6009E021686018824201BF106852680918216062605C602846BDE87F
:40338000384000F0DBB938BDEC81FF1F70B5CD1C25F0030508350C2D38BF0C25002D064601DBA94202D90C23336046E000F0C5F9234B1C681A462146A1B10B685B1B0ED441
:4033C0000B2B03D90B60CC18CD501EE08C420BBF63684B681360636018BF0C4615E00C464968E9E7174C23681BB9304600F07AF920602946304600F075F9431C18D0C41C8F
:4034000024F00304A0420DD12560304600F096F904F10B00231D20F00700C31A0ED05A42E25070BD211A304600F05CF90130EBD10C233360304600F081F9002070BD00BF99
:40344000EC81FF1FE881FF1F2DE9F0478E6882469E420C46914698463ED88A8912F4906F3AD02568096902236F1A656905EB450595FBF3F57B1C43449D4238BF1D46530534
:403480000FD52946FFF782FF064698B13A462169FEF75CF9A38923F4906343F08003A38113E02A4600F04BF9064670B921695046FFF720FF0C23CAF80030A3894FF0FF304D
:4034C00043F04003A381BDE8F08726613E44266046466561ED1BA560464528BF464649463246206800F00EF9A36800209B1BA36023681E442660BDE8F08700002DE9F04FDC
:403500009DB003938B8980461C060D4616460DD50B695BB94021FFF739FF2860286118B90C23C8F80030CDE040236B610023099320238DF82930DFF89CB130238DF82A30F1
:4035400037463C4614F8013B1BB9B7EB060910D003E0252BF9D02746F3E74B46324629464046FFF771FF013000F0A780099B4B4409933B78002B00F0A08000234FF0FF3260
:4035800004930793059206938DF853301A930126052221784E48FFF7BBFB671C049B38B14B4A3C46801A06FA00F018430490EFE7D90644BF20228DF853201A0744BF2B22CE
:4035C0008DF8532022782A2A03D0079A00210A200BE0039A111D12680391002A10DA524243F00200079204900BE027463B780134303B092B03D800FB02320121F5E701B1BF
:4036000007923B782E2B1ED17B782A2B0AD1039B02371A1D1B680392002BB8BF4FF0FF33059310E0002319460593781C0A2407463A780130303A092A03D804FB0121012349
:40364000F5E703B10591032239782248FFF760FB40B14023CBEB000003FA00F0049B013718430490397806221B487E1C8DF82810FFF74EFB88B1194B33B9039B073323F090
:4036800007030833039314E003AB00932A46144B04A94046FEF7FEF807E003AB00932A460F4B04A94046FEF7AFFBB0F1FF3F824603D0099B5344099342E7AB895B0601D465
:4036C000099801E04FF0FF301DB0BDE8F08F00BF283A00002E3A0000323A0000951800004934000038B5064C0023054608462360FCF7C6FF431C02D1236803B12B6038BDA3
:403700005C82FF1F884210B501EB020301D8421E0BE09842FBD28118D21AD34204D013F8014D01F8014DF8E710BD994204D011F8014B02F8014FF8E710BD70477047F8B573
:40374000074615460E4621B91146BDE8F840FFF71DBE1AB9FFF7CEFD2846F8BD00F015F885420ED929463846FFF710FE044650B131462A46FDF7EAFF31463846FFF7BAFD6A
:4037800001E03046F8BD2046F8BD51F8040C0028BEBF091851F8043CC0180438704700004FEA410C7FEA6C5C02D150EA013C0AD14FEA430C7FEA6C5C02D152EA033C02D1B9
:4037C0004FF0000070474FF0010070474FEA410212F5001215D211D56FF47873B3EB625212D94FEAC12343F0004343EA505311F0004F23FA02F018BF404270474FF00000DE
:40380000704750EA013005D111F0004008BF6FF0004070474FF00000704700BF000000000D0A204E415620494E5452000D0A2074696D653A20202566000000000D0A20736F
:4038400074656572696E67206572726F723A2020256600000D0A20696E74656772616C3A202566000D0A20646572697661746976653A2025660000000D0A207374656572F0
:40388000696E672070776D3A20202566000000000D0A20535045454420494E545200000025662066742F732C0D0A0000205100401000C05100401000F0510040100000002F
:4038C0000140001000140140000800400140000A004C014000020050014020004300494E4600696E66004E414E006E616E0030003031323334353637383941424344454606
:40390000003031323334353637383961626364656600496E66696E697479004E614E00504F534958002E0000000000000000F03F00000000000024400000000000005940F1
:403940000000000000408F40000000000088C34000000000006AF8400000000080842E4100000000D01263410000000084D797410000000065CDCD41000000205FA002423C
:40398000000000E876483742000000A2941A6D42000040E59C30A2420000901EC4BCD64200003426F56B0C430080E03779C3414300A0D8855734764300C84E676DC1AB4394
:4039C000003D9160E458E143408CB5781DAF154450EFE2D6E41A4B4492D54D06CFF08044F64AE1C7022DB544B49DD9794378EA4405000000190000007D0000000000000023
:403A00000080E03779C34143176E05B5B5B89346F5F93FE9034F384D321D30F94877825A3CBF737FDD4F1575232D302B2000686C4C0065666745464700000000F8B500BFAC
:403A4000F8BC08BC9E4670474D000000FD060000F8B500BFF8BC08BC9E46704729000000703A0000C880FF1FB8000000E00000000000000000000000FFFF00000000000095
:403A800000000000006AE8406082FF1F0000000000000000000000000000000000000000000000000000000000000000DC3800000000000000000000000000000000000060
:403AC0000000000000000000000000000000000000000000000000000000000000000000000000000000000000000000E480FF1F253900002D3A00002D3A00002D3A0000B1
:403B00002D3A00002D3A00002D3A00002D3A00002D3A00002D3A0000FFFFFFFFFFFFFFFFFFFFFFFFFFFF000000000000000000000000000000000000000000000000000029
:403B40000000000000000000000000000000000000000000000000000000000000000000000000000000000000000000000000000000000000000000000000000000000045
:403B80000000000000000000000000000000000000000000000000000000000000000000000000000000000000000000000000000000000000000000000000000000000005
:403BC00000000000000000000000000000000000000000000000000000000000000000000000000000000000000000000000000000000000000000000000000000000000C5
:403C00000000000000000000000000000000000000000000000000000000000000000000000000000000000000000000000000000000000000000000000000000000000084
:020000040003F7
:0200000480007A
:400000000652004007640040016500405E0201403C030140590401404B0501405C0601404207014002090140550A0140490B0140510C0140400D0140600E0140300F01407E
:400040005B1401403D1501400517014007400140074101400B420140034301400644014007450140034601400647014004490140054C01400D4D01400750014001510140A4
:400080002080218028182944310134402D23820D830D870F8B388C728E0F850F03040B040D010E021B02220127022F01300232013304350237013F104050410349FF4AFF29
:4000C0004BFF4DA04F04501852805405580459045A045B045C115D115F01604062C06440654066C068C06AC06CC06EC083108548872689118B6E8D048F2A9201932297226A
:400100009B219E029F22A602AB20B130B340B402B503B601B70CBB22BE10C010C102C5D0C621C80EC9FFCAFFCBFFCDAFCE0FCF04D018D280D405D604D804D904DA04DB04F9
:40014000DC81DD11DF11E040E2C0E440E540E6C0E8C0EAC0ECC0EEC0058006010A41121016801A071C801E3020222145223023012644270829102D802F20314A321036105E
:40018000398A3B103C803D203E0141204201461049024E0150405120521059025A845D015E805F0860407240768079208040811086028E04C080C209C414CA54CC2FCEBF31
:4001C000D04CD210D6DBD801DE04E001E240E608020A030A070A09050A0A0B0A0E090F09120A160A17041A04260828052A0A3103330C340C36033AA03B0A4030410249FF0A
:400200004AFF4BFF4DA04F0450185608580459045A045B045C885D015F11604062C06440654066C068C06AC06CC06EC0830285018B028F01910195019D01A301A901AF0134
:40024000B102B501B920BF10C030C102C5D0C620C710C82AC9FFCAFFCBFFCDAFCE0FCF04D018D608D904DA04DB04DC10DD01DF01E040E2C0E440E540E6C0E8C0EAC0ECC036
:40028000EEC00022019003400808090A0A0411081220131019D01A04210A2340260227042F45310834023504368039083B513E903F0641204230452046204D0155205601A9
:4002C000572159805C085D125F4060026504668067847920860287108A088C80908091289210930195019680971099209A029D509E01A011A220A50AA720A840B131C00B98
:40030000C20EC406CAB0CCD2CEFFD066D6F8D8F8DE04E008E210EC20080809100AF70B060C500EA4110413081431151F16C2185719061AA81B1924FF250927062832290152
:400340002AC12B0232F0331F340F40524103420649FF4AFF4BFF4F0150185608580459045A045B045F016040624064406540668068806A806C806E8085018F0193029A0166
:400380009E02A102A702AE01B202B302B601B701BE40BF04C052C103C206C5ECC620C80BC9FFCAFFCBFFCD83CE03CF01D018D403D604D804D904DA04DB04DC10DF05E040B6
:4003C000E240E440E540E680E880EA80EC80EE8004100702084009200C080E081002172419481E181F10201022482720284029082A022C082F103002372638803A083C10C7
:4004000040204120430445204704480249054A084C024E08512059455A105DA060806380670A782083408F0490809680970A99209A0A9B449C80A104A680B512C0C0C26388
:40044000C461CA63CCE1CE2AD066D23CD63FD831DE04E006E006E4100403070608030C020D060F01160417011B031F022A012B0532033507360438083B203E044003460450
:4004800049FF4A074BFF4C404D204EF04F055008580459045A045C215D025F01604061A862406320804082808509860887108846890C8A218B118C718D1C8E068F02924099
:4004C0009303951096319A089B209C469D149E11A004A320A402A520A806A910AB0CAC77AD20B080B208B476B520B607B71FB920BAA0BE04D418D804D904DB04DC22DD208B
:40050000DF010084012004480590068009080D020E010F181008176918101A021D121E011F042004221024082540270229202DA82E01308832103510368837023B443C805E
:400540003E103F04401050885A305E02654067088A018C808E08904093549404962199689A809B699D10A040A108A281A304A488A540AC20B240B310B504B740C0F7C2F4C3
:40058000C4F2CAF4CCFECE7AD002D680D830E008E220EE080001041F05070718081C0A030B190C080D190F0610131104120C14031502180219061C1F1D1F210622032319F6
:4005C00024042510280C29182D08300F3118341035073A023E1056025712580459045B045C225D205F01870C8D0C8F039604970399019A029B0E9C019F08A404A602A9011F
:40060000AB06B001B10FB406BB02BE01C032C502C801C9FFCAFFCBFFD804D904DA04DC20DF01E080E240E340E440E540E680E880EA80EC80EE80051C0688071108280940D2
:400640000C040E450F8010201640172818801A081C401E48208023402601270429202C042E852F043088321037693B443E483F10402848205E086C106D106F2277298108BC
:40068000840886048C409204931C94249510974099609A809B109F04A280A304A408A762B280B312C0F0C2F7C474CAF4CCFECE7AD006D640E40804030503060408030A0C86
:4006C0000F03100A12041410150417011A081B012403260429032A0531013210340F350639203A203E043F0140634102450C46EB480D49FF4AFF4BFF4EF04F44500C540138
:40070000580459045A045B045C225D225F0166C06A406B02800A8291881F89019401964698149A899E20A501A620A81FAD01B0C0B207B418B501B620BB08BE41C056C102E0
:40074000C203C404C5C0C70EC812C9FFCAFFCBFFCC62CDA0CEF0CF41D00CD804D904DA04DC22DD02DF01E640E702E910EA30EB10ED10EE10EF1200040120042006800B646D
:400780000E240F0210381510170419241D421E241F04210123042408271029202F223028310838043B403D104084410945024714482049204C044F92528053105704589068
:4007C00059045B02C056C2EEC466CA54CC06CE2AD0E6D234D60F010A07060B031B0D2F0F350F3B204051420449FF4AFF4BFF4F0150185283560859045A045B045C105D011A
:400800005F016040624064406540668068806A806C806E8082018308840C8630881489068A288E3C8F0891069502970499029A019B04A014A101A228A40CA630A801AA0210
:40084000B23CB308B402B507B601BB30BE40BF04C041C205C5ECC720C823C9FFCAFFCBFFCD83CE03CF01D018D283D403D804D904DA04DB04DC11DD11DF01E040E240E440B8
:40088000E540E680E880EA80EC80EE8004040540064007080E0417251D401E241F4020042110222025302608270829C02B022F40312036203705380A39203D203E023F40AB
:4008C00042024302464248014B404D804F0556025B405E605F05628068086B026C056F0570027401764083208E489B409F02A40AA680C0F0C240C470CA88CCE4CEB7D099FD
:40090000D218D6F8D8089B409F02A40AA680B5840788338037406602C0A0CC30D88051108E029B889E029F40A780D420851087088F4095209B889F40AB80B380E010E240F9
:40094000EE2087809B80E04009402B015202C202CA08D40187808E02A301A602B140E408EE048640A381AF01830885028E029A40A381E4080A108210C210E0809A409B08C0
:40098000A102A202A381524257805F08610263029A409B08A102A202A381D407D603D802000708020A030C060E0510031A03000F0002020002000000000B0B00000000001E
:4009C00010000000000000000A80800080002000007E7E007E000000010040010100010000000000000000000000000000000000000000000000000000000000000000007F
:400A000000000000000000000000000000000000000000000000000000000000000000000000000000000000000000000000000000000000000000000000000000000000B6
:400A40000000000000000000000000000000000000000000000000000000000000000000000000000000000000000000000000000000000000000000000000000000000076
:400A80000000000000000000000000000000000000000000000000000000000000000000000000000000000000000000000000000000000000000000000000000000000036
:400AC00000000000000000000000000000000000000000000000000000000000000000000000000000000000000000000000000000000000000000000000000000000000F6
:0200000490006A
:0400000000004005B7
:0200000490105A
:04000000BC90ACAF55
:0200000490303A
:02000000FBCC37
:0200000490402A
:4000000000000000000000000000000000000000000000000000000000000000000000000000000000000000000000000000000000000000000000000000000000000000C0
:400040000000000000000000000000000000000000000000000000000000000000000000000000000000000000000000000000000000000000000000000000000000000080
:400080000000000000000000000000000000000000000000000000000000000000000000000000000000000000000000000000000000000000000000000000000000000040
:4000C0000000000000000000000000000000000000000000000000000000000000000000000000000000000000000000000000000000000000000000000000000000000000
:0200000490501A
:0C00000000012E12306900012E2C2C355E
:00000001FF